{
  "contractName": "Mycontract",
  "abi": [
    {
      "constant": false,
      "inputs": [],
      "name": "add",
      "outputs": [],
      "payable": false,
      "stateMutability": "nonpayable",
      "type": "function"
    },
    {
      "constant": false,
      "inputs": [],
      "name": "subtract",
      "outputs": [],
      "payable": false,
      "stateMutability": "nonpayable",
      "type": "function"
    },
    {
      "constant": true,
      "inputs": [],
      "name": "getcounter",
      "outputs": [
        {
          "name": "",
          "type": "uint256"
        }
      ],
      "payable": false,
      "stateMutability": "view",
      "type": "function"
    }
  ],
  "bytecode": "0x608060405234801561001057600080fd5b50610104806100206000396000f3006080604052600436106053576000357c0100000000000000000000000000000000000000000000000000000000900463ffffffff1680634f2be91f1460585780636deebae314606c578063df3689a1146080575b600080fd5b348015606357600080fd5b50606a60a8565b005b348015607757600080fd5b50607e60bb565b005b348015608b57600080fd5b50609260cf565b6040518082815260200191505060405180910390f35b6000808154809291906001019190505550565b600080815480929190600190039190505550565b600080549050905600a165627a7a72305820f1f30c0f00fc1c16046105fbac0248e0cb253278e654ba1b2d953fb952e6d6c90029",
  "source": "pragma solidity ^0.4.1;\n\ncontract Mycontract {\n    uint256 counter;\n    function add() public {\n        counter++;\n    }\n    function subtract() public {\n        counter--;\n    }\n    function getcounter() public constant returns(uint256) {\n        return counter;\n    }\n}",
  "sourcePath": "/Users/shreyas/blockchain/test02/contracts/counter.sol",
  "compiler": {
    "name": "solc",
    "version": "0.4.24+commit.e67f0147.Emscripten.clang"
  },
  "schemaVersion": "2.0.1",
  "updatedAt": "2018-12-07T05:53:07.237Z"
}