{
  "contractName": "Deliver",
  "abi": [
    {
      "constant": true,
      "inputs": [
        {
          "name": "",
          "type": "uint256"
        }
      ],
      "name": "products",
      "outputs": [
        {
          "name": "pid",
          "type": "uint256"
        },
        {
          "name": "name",
          "type": "string"
        },
        {
          "name": "quantity",
          "type": "uint256"
        }
      ],
      "payable": false,
      "stateMutability": "view",
      "type": "function"
    },
    {
      "constant": true,
      "inputs": [
        {
          "name": "",
          "type": "address"
        }
      ],
      "name": "senders",
      "outputs": [
        {
          "name": "",
          "type": "bool"
        }
      ],
      "payable": false,
      "stateMutability": "view",
      "type": "function"
    },
    {
      "constant": true,
      "inputs": [],
      "name": "productsCount",
      "outputs": [
        {
          "name": "",
          "type": "uint256"
        }
      ],
      "payable": false,
      "stateMutability": "view",
      "type": "function"
    },
    {
      "inputs": [],
      "payable": false,
      "stateMutability": "nonpayable",
      "type": "constructor"
    },
    {
      "constant": false,
      "inputs": [
        {
          "name": "_productId",
          "type": "uint256"
        }
      ],
      "name": "send",
      "outputs": [],
      "payable": false,
      "stateMutability": "nonpayable",
      "type": "function"
    }
  ],
  "bytecode": "0x608060405234801561001057600080fd5b5061005e6040805190810160405280600981526020017f50726f6475637420310000000000000000000000000000000000000000000000815250610063640100000000026401000000009004565b610185565b600260008154809291906001019190505550606060405190810160405280600254815260200182815260200160058152506001600060025481526020019081526020016000206000820151816000015560208201518160010190805190602001906100cf9291906100e0565b506040820151816002015590505050565b828054600181600116156101000203166002900490600052602060002090601f016020900481019282601f1061012157805160ff191683800117855561014f565b8280016001018555821561014f579182015b8281111561014e578251825591602001919060010190610133565b5b50905061015c9190610160565b5090565b61018291905b8082111561017e576000816000905550600101610166565b5090565b90565b610362806101946000396000f300608060405260043610610062576000357c0100000000000000000000000000000000000000000000000000000000900463ffffffff1680637acc0b2014610067578063982fb9d81461011b578063a52c101e14610176578063e0df7bb6146101a3575b600080fd5b34801561007357600080fd5b50610092600480360381019080803590602001909291905050506101ce565b6040518084815260200180602001838152602001828103825284818151815260200191508051906020019080838360005b838110156100de5780820151818401526020810190506100c3565b50505050905090810190601f16801561010b5780820380516001836020036101000a031916815260200191505b5094505050505060405180910390f35b34801561012757600080fd5b5061015c600480360381019080803573ffffffffffffffffffffffffffffffffffffffff169060200190929190505050610290565b604051808215151515815260200191505060405180910390f35b34801561018257600080fd5b506101a1600480360381019080803590602001909291905050506102b0565b005b3480156101af57600080fd5b506101b8610330565b6040518082815260200191505060405180910390f35b6001602052806000526040600020600091509050806000015490806001018054600181600116156101000203166002900480601f0160208091040260200160405190810160405280929190818152602001828054600181600116156101000203166002900480156102805780601f1061025557610100808354040283529160200191610280565b820191906000526020600020905b81548152906001019060200180831161026357829003601f168201915b5050505050908060020154905083565b60006020528060005260406000206000915054906101000a900460ff1681565b60016000803373ffffffffffffffffffffffffffffffffffffffff1673ffffffffffffffffffffffffffffffffffffffff16815260200190815260200160002060006101000a81548160ff021916908315150217905550600160008281526020019081526020016000206002016000815480929190600101919050555050565b600254815600a165627a7a7230582040ade132589e50868a36802b1d0869e20f80d9715461b5ae9fc1ce77cf87706e0029",
  "source": "pragma solidity ^0.4.2;\n\ncontract Deliver {\n\n    struct Product{\n\n        uint pid;\n        string name;\n        uint quantity;\n    }\n    \n    mapping(address => bool) public senders;\n\n    mapping(uint => Product) public products;\n\n    uint public productsCount;\n\n    function Deliver () public {\n        addProduct(\"Product 1\");\n    }\n\n\n    function addProduct (string _name) private {\n        productsCount ++;\n        products[productsCount] = Product(productsCount, _name, 5);\n    }\n\n    function send (uint _productId) public {\n \n       senders[msg.sender] = true;\n       products[_productId].quantity ++;\n    }\n}",
  "sourcePath": "/Users/shreyas/blockchain/Blockchain/test03/contracts/deliver.sol",
  "compiler": {
    "name": "solc",
    "version": "0.4.24+commit.e67f0147.Emscripten.clang"
  },
  "schemaVersion": "2.0.1",
  "updatedAt": "2018-12-11T15:30:49.353Z"
}