{
  "contractName": "Deliver",
  "abi": [
    {
      "constant": true,
      "inputs": [
        {
          "name": "",
          "type": "uint256"
        }
      ],
      "name": "products",
      "outputs": [
        {
          "name": "sid",
          "type": "uint256"
        },
        {
          "name": "rid",
          "type": "uint256"
        },
        {
          "name": "name",
          "type": "string"
        },
        {
          "name": "quantity",
          "type": "uint256"
        }
      ],
      "payable": false,
      "stateMutability": "view",
      "type": "function"
    },
    {
      "constant": true,
      "inputs": [],
      "name": "productsCount",
      "outputs": [
        {
          "name": "",
          "type": "uint256"
        }
      ],
      "payable": false,
      "stateMutability": "view",
      "type": "function"
    },
    {
      "inputs": [],
      "payable": false,
      "stateMutability": "nonpayable",
      "type": "constructor"
    }
  ],
  "bytecode": "0x608060405234801561001057600080fd5b5061005e6040805190810160405280600981526020017f50726f6475637420310000000000000000000000000000000000000000000000815250610063640100000000026401000000009004565b610198565b60016000815480929190600101919050555060806040519081016040528060015481526020016001805401815260200182815260200160008152506000806001548152602001908152602001600020600082015181600001556020820151816001015560408201518160020190805190602001906100e29291906100f3565b506060820151816003015590505050565b828054600181600116156101000203166002900490600052602060002090601f016020900481019282601f1061013457805160ff1916838001178555610162565b82800160010185558215610162579182015b82811115610161578251825591602001919060010190610146565b5b50905061016f9190610173565b5090565b61019591905b80821115610191576000816000905550600101610179565b5090565b90565b610231806101a76000396000f30060806040526004361061004c576000357c0100000000000000000000000000000000000000000000000000000000900463ffffffff1680637acc0b2014610051578063e0df7bb61461010c575b600080fd5b34801561005d57600080fd5b5061007c60048036038101908080359060200190929190505050610137565b6040518085815260200184815260200180602001838152602001828103825284818151815260200191508051906020019080838360005b838110156100ce5780820151818401526020810190506100b3565b50505050905090810190601f1680156100fb5780820380516001836020036101000a031916815260200191505b509550505050505060405180910390f35b34801561011857600080fd5b506101216101ff565b6040518082815260200191505060405180910390f35b6000602052806000526040600020600091509050806000015490806001015490806002018054600181600116156101000203166002900480601f0160208091040260200160405190810160405280929190818152602001828054600181600116156101000203166002900480156101ef5780601f106101c4576101008083540402835291602001916101ef565b820191906000526020600020905b8154815290600101906020018083116101d257829003601f168201915b5050505050908060030154905084565b600154815600a165627a7a7230582043f801dcbe3ac8680448350a44f2ece7689a6ea138b4a915552da6137d3d780d0029",
  "source": "pragma solidity ^0.4.2;\n\ncontract Deliver {\n\n    struct Product{\n        uint sid;\n        uint rid;\n        string name;\n        uint quantity;\n    }\n\n    mapping(uint => Product) public products;\n\n    uint public productsCount;\n\n    function Deliver () public {\n        addProduct(\"Product 1\");\n        //addProduct(\"Product 2\");\n    }\n\n\n    function addProduct (string _name) private {\n        productsCount ++;\n        products[productsCount] = Product(productsCount,productsCount+1, _name, 0);\n    }\n}",
  "sourcePath": "/Users/shreyas/blockchain/Blockchain/test03/contracts/deliver.sol",
  "compiler": {
    "name": "solc",
    "version": "0.4.24+commit.e67f0147.Emscripten.clang"
  },
  "schemaVersion": "2.0.1",
  "updatedAt": "2018-12-11T13:29:04.277Z"
}